:0400000055EF00F0C8
:060008005A8214ED11F014
:100018005A80D8CF14F0E8CF15F0E0CF16F0FACF19
:1000280017F0FBCF18F0E9CF19F0EACF1AF0E1CFBB
:100038001BF0E2CF1CF0D9CF1DF0DACF1EF0F3CFC2
:100048001FF0F4CF20F0F6CF21F0F7CF22F0F8CF51
:1000580023F0F5CF24F0F29EF28E24C0F5FF23C0E2
:10006800F8FF22C0F7FF21C0F6FF20C0F4FF1FC031
:10007800F3FF1EC0DAFF1DC0D9FF1CC0E2FF1BC082
:10008800E1FF1AC0EAFF19C0E9FF18C0FBFF17C05B
:10009800FAFF16C0E0FF15C0E8FF14C0D8FF5A9059
:0600A80010001DEF13F033
:1006000000010000000A00000064000000E8030090
:100610000010270000A086010040420F008096983D
:100620000000E1F50500CA9A3B00803F0020410030
:10063000C842007A44401C4650C347247449971866
:100640004BBCBE4C6B6E4E03155079AD60F34971D7
:1006500000803FCDCC3DD7233C12833AB7D138C67A
:100660002737388635C0D633CC2B32708930E7DB5C
:100670002EE53C1E42A20D0100000010000000000B
:100680000100000010000000000100000010000048
:10069000000001000000100D4144432052656164D8
:1006A0003A203078253032782530327809003031E0
:1006B00032333435363738396162636465660041F8
:1006C000444320566F6C743A20252E326609000090
:1006D000960E0001A46F000E0001A56F65EF09F0F2
:1006E000250E0001B919D8B40BD092C0D9FF93C020
:1006F000DAFFB9C0DFFF0001924B932B65EF09F0E1
:10070000000E0001B36F000EB26F000E0001B16F5A
:10071000000EB06F05D00001B0850001944B952B01
:1007200094C0F6FF95C0F7FF0800F550300AD8B422
:10073000F2D794C0F6FF95C0F7FF0800F55082ECA1
:1007400013F0D8A03FD0000E0001B36F000EB26FBF
:10075000B2C033F0B3C034F0000E366E0A0E356E00
:100760004BEC13F033C0B2F034C0B3F0D00E000144
:100770009A6FFF0E00019B6F94C0F6FF95C0F7FFC4
:100780000800F55000019C6F9D6B00019A5100011B
:100790009C2700019B5100019D2300019C510001F9
:1007A000B22700019D510001B3230001944B952B0A
:1007B00094C0F6FF95C0F7FF0800F55082EC13F0E7
:1007C000D8B0C6D794C0F6FF95C0F7FF0800F55023
:1007D0002E0AD8A434D00001B18D0001944B952B82
:1007E000000E0001B86F000EB76F1ED0B7C033F017
:1007F000B8C034F0000E366E0A0E356E4BEC13F0B6
:1008000094C0F6FF95C0F7FF0800F5503326000EA0
:100810003422D00E33240001B76FFF0E34200001C4
:10082000B86F0001944B952B94C0F6FF95C0F7FF6D
:100830000800F55082EC13F0D8A00CD0D7D7000EEA
:100840000001B86F000EB76F0001B18903D000013D
:10085000B18517D094C0F6FF95C0F7FF0001944B07
:10086000952B0800F5CFB9F00001B951000AD8B4B2
:1008700074EF09F0660AD8B4EAD71E0AD8A465EF67
:1008800009F0070E0001B115D8B49DD30001B1A93C
:1008900005D0000E0001B86F060EB76FA4C0D9FFD7
:1008A000A5C0DAFFDECFB4F0DECFB5F0DDCFB6F015
:1008B000030E0001A427000EA5230001B6AF11D03E
:1008C000B4C025F0B5C026F0B6C027F05EEC13F03A
:1008D00025C0B4F026C0B5F027C0B6F0030E000165
:1008E000B013000E0001AF6F000EAE6F0001B451E7
:1008F0000001B5110001B611D8B491D0820E0001EB
:100900009A6FFF0E00019B6FB4C09CF0B5C09DF0C4
:10091000B6C09EF0B7C09FF0100E06D00001D89070
:100920009F339E339D339C33E82EF8D700019C51B2
:1009300000019A250001AE6F000E00019B2100010D
:10094000AF6F0001AE07D8A0AF07AEC033F0AFC0A5
:1009500034F0000E366E030E356E4BEC13F033C0E0
:10096000AEF034C0AFF0AEC02BF0AFC02CF0000E34
:100970002E6E0A0E2D6EA6EC11F02BC0AEF02CC020
:10098000AFF00001AFAF04D00001AE07D8A0AF07B1
:100990000001AE5100087BEC09F048C0AAF049C044
:1009A000ABF04AC0ACF0AAC039F0ABC03AF0ACC072
:1009B0003BF0B4C03CF0B5C03DF0B6C03EF043ECF7
:1009C00010F039C0AAF03AC0ABF03BC0ACF0AAC0FE
:1009D00025F0ABC026F0ACC027F0000E286E800ECC
:1009E000296E3F0E2A6E5EEC11F0D8B005D00001E2
:1009F000AE07D8A0AF0713D0AAC025F0ABC026F031
:100A0000ACC027F0000E286E200E296E410E2A6E13
:100A10005EEC11F0D8A003D00001AE4BAF2B00016B
:100A2000B8BF08D00001B8511DE10D0E0001B75D3F
:100A3000D8B018D0B4C080F0B5C081F0B6C082F094
:100A40000001B751A7EC0CF048C083F049C084F016
:100A50004AC085F073EC0BF080C0B4F081C0B5F0F3
:100A600082C0B6F00001AFBF08D00001AF5126E14F
:100A70000A0E0001AE5DD8B021D00001B4510001D2
:100A8000B5110001B611D8B45BD0B4C04FF0B5C0F9
:100A900050F0B6C051F018EC0FF04F5050105110FC
:100AA0005210D8A44DD00001AFBF4AD00001AF51C1
:100AB00005E1020E0001AE5DD8A042D0AAC025F02B
:100AC000ABC026F0ACC027F0700E286E890E296EE0
:100AD000400E2A6E5EEC11F0D8B003D00001F70E84
:100AE00002D00001F80EAE27FF0EAF230001AE5179
:100AF0007BEC09F048C0AAF049C0ABF04AC0ACF0AA
:100B0000B4C025F0B5C026F0B6C027F0AAC028F0C2
:100B1000ABC029F0ACC02AF07FEC0EF025C0A6F0E7
:100B200026C0A7F027C0A8F028C0A9F0000E000139
:100B3000B46F000E0001B56F000E0001B66F33D028
:100B4000B4C04FF0B5C050F0B6C051F018EC0FF083
:100B50004FC0A6F050C0A7F051C0A8F052C0A9F0F5
:100B6000B4C08CF0B5C08DF0B6C08EF0A6C02DF02C
:100B7000A7C02EF0A8C02FF0A9C030F094EC12F05E
:100B80002DC08FF02EC090F02FC091F0C2EC12F06B
:100B90008CC0B4F08DC0B5F08EC0B6F0000E000170
:100BA000AF6F000EAE6F010E0001B96F0A0E0001AB
:100BB000B919D8B41ED00001B951040D010EF324A7
:100BC000F66E060EF420F76E0900F5500001A65DE2
:100BD0000900F5500001A7590900F5500001A85976
:100BE0000900F5500001A959D8A003D00001B92B84
:100BF000DDD7B9C09AF000019B6B9ABF9B0700013B
:100C0000B75100019A270001B85100019B23000150
:100C1000AE5100019A270001AF5100019B23000152
:100C20009A510001B25F00019B510001B35B0001CA
:100C3000B7510001B811D8B404D00001B207D8A050
:100C4000B307030E0001B01500019A6F000E0001FA
:100C5000B11500019B6F00019A5100019B11D8B49E
:100C600004D00001B207D8A0B3070001B0A53FD05F
:100C7000030E0001B01500019A6F000E0001B115BE
:100C800000019B6F00019A5100019B11D8B417D04D
:100C900092C0D9FF93C0DAFF2D0EDF6E0001924B98
:100CA000932B0DD092C0D9FF93C0DAFF300EDF6EC8
:100CB0000001924B932B0001B207D8A0B3070001AB
:100CC000B3BF83D00001B351EDE10001B205D8A05C
:100CD0007CD0E8D792C0D9FF93C0DAFF200EDF6E38
:100CE0000001924B932B0001B207D8A0B30700017B
:100CF000B3BF07D00001B351EDE10001B205D8B098
:100D0000E9D7030E0001B01500019A6F000E000133
:100D1000B11500019B6F00019A5100019B11D8B4DD
:100D200054D092C0D9FF93C0DAFF2D0E4CD00001F1
:100D3000924B932B4AD0A6C025F0A7C026F0A8C09E
:100D400027F0A9C028F00001B951040D010EF324C9
:100D5000F66E060EF420F76E0900F5CF29F00900B3
:100D6000F5CF2AF00900F5CF2BF00A00F5CF2CF0D3
:100D7000E8EC11F025C0AAF026C0ABF027C0ACF01B
:100D800028C0ADF0AAC025F0ABC026F0ACC027F05B
:100D9000ADC028F00A0E296E000E2A6E000E2B6ED2
:100DA000000E2C6E61EC12F025C0AAF026C0ABF04C
:100DB00027C0ACF028C0ADF00001AA51300F92C09E
:100DC000D9FF93C0DAFFDF6EB2D70001B907000187
:100DD000B929D8B40ED0AFD792C0D9FF93C0DAFFEB
:100DE000300EDF6E0001924B932B0001AE07D8A0AE
:100DF000AF070001AFBF07D00001AF51EDE1000127
:100E0000AE05D8B0E9D70001B8BF0CD00001B85189
:100E100005E1090E0001B75DD8A004D0080E00015D
:100E2000B96F02D0B7C0B9F00001B9510001B75F86
:100E3000000E0001B9BFFF0E0001B85B0001B951FF
:100E40000001D8B409D092C0D9FF93C0DAFF2E0EAA
:100E5000DF6E0001924B932B0001B9517BEC09F03E
:100E600048C0A0F049C0A1F04AC0A2F0B4C03CF014
:100E7000B5C03DF0B6C03EF0A0C039F0A1C03AF018
:100E8000A2C03BF043EC10F039C04FF03AC050F034
:100E90003BC051F018EC0FF04FC0A6F050C0A7F0C7
:100EA00051C0A8F052C0A9F073D0A6C025F0A7C0C9
:100EB00026F0A8C027F0A9C028F00001B951040D00
:100EC000010EF324F66E060EF420F76E0900F5CF3E
:100ED00029F00900F5CF2AF00900F5CF2BF00A0020
:100EE000F5CF2CF0E8EC11F025C0AAF026C0ABF04D
:100EF00027C0ACF028C0ADF0AAC025F0ABC026F0EA
:100F0000ACC027F0ADC028F00A0E296E000E2A6E84
:100F1000000E2B6E000E2C6E61EC12F025C0AAF0B4
:100F200026C0ABF027C0ACF028C0ADF00001AA513C
:100F3000300F92C0D9FF93C0DAFFDF6E0001924BF1
:100F4000932BA6C025F0A7C026F0A8C027F0A9C003
:100F500028F00001B951040D010EF324F66E060EBF
:100F6000F420F76E0900F5CF29F00900F5CF2AF03B
:100F70000900F5CF2BF00A00F5CF2CF061EC12F050
:100F800025C0A6F026C0A7F027C0A8F028C0A9F069
:100F90000001B9070001B929D8B40ED086D792C094
:100FA000D9FF93C0DAFF300EDF6E0001924B932B16
:100FB0000001B707D8A0B8070001B7510001B81168
:100FC000D8B483D1ECD7A4C0D9FFA5C0DAFFDECF57
:100FD0009AF0DDCF9BF09AC0A6F09BC0A7F000016D
:100FE000A86BA96B020E0001A427000EA523000127
:100FF000B7510001B811D8A40DD00001A6510001CD
:10100000A7110001A8110001A911D8A403D0000163
:10101000B74BB82B010E0001B96F080E0001B919CA
:10102000D8B41ED00001B951040D770EF324F66E2A
:10103000060EF420F76E0900F5500001A65D0900C8
:10104000F5500001A7590900F5500001A859090001
:10105000F5500001A959D8A003D00001B92BDDD764
:10106000800E0001B9BF7F0E00019A6F0001B751D9
:101070000001B95D0001B851800A00019A59D8B049
:1010800003D0B7C0B9F018D00001B851800A0001F0
:101090009A6F0001B9510001B75D800E0001B9BF20
:1010A0007F0E00019A59D8B007D00001B951000154
:1010B000B76FB86BB7BFB8070001B2510001B311E9
:1010C000D8B414D0030E0001B01500019A6F000EC1
:1010D0000001B11500019B6F00019A5100019B11A5
:1010E000D8B404D00001B207D8A0B3070001B1AD55
:1010F0001ED00001B2510001B75D0001B851800A55
:1011000000019A6F0001B351800A00019A59D8B0CA
:1011100009D00001B7510001B25F0001B8510001D0
:10112000B35B05D0000E0001B36F000EB26F800EEE
:101130000001B9BF7F0E00019A6F0001B25100019A
:10114000B95D0001B351800A00019A59D8B00BD0A3
:101150000001B9510001B25F000E0001B9BFFF0EDE
:101160000001B35B05D0000E0001B36F000EB26F3B
:101170000001B0A52DD0030E0001B01500019A6F3B
:10118000000E0001B11500019B6F00019A51000192
:101190009B11D8B409D092C0D9FF93C0DAFF2D0EAD
:1011A000DF6E0001924B932B0001B2510001B3118D
:1011B000D8B480D092C0D9FF93C0DAFF300EDF6E72
:1011C0000001924B932B0001B207D8A0B307ECD7D4
:1011D0000001B2510001B311D8B413D092C0D9FFAD
:1011E00093C0DAFF200EDF6E0001924B932B0001BB
:1011F000B207D8A0B3070001B2510001B311D8A4BF
:10120000EDD7030E0001B01500019A6F000E00012A
:10121000B11500019B6F00019A5100019B11D8B4D8
:1012200049D092C0D9FF93C0DAFF2D0EDF6E3FD0B8
:10123000A6C025F0A7C026F0A8C027F0A9C028F0B6
:10124000B7C09AF0B8C09BF00001D8909A379B378E
:101250000001D8909A379B37770E00019A25F66ED9
:10126000060E9B21F76E0900F5CF29F00900F5CF96
:101270002AF00900F5CF2BF00A00F5CF2CF0E8ECAE
:1012800011F025500F0B0001A36F0001A351010DB8
:10129000AE0EF324F66E060EF420F76E0800F5CFBE
:1012A000B9F092C0D9FF93C0DAFFB9C0DFFF0001E7
:1012B000924B932B0001B707D8A0B8070001B729BC
:1012C000B7E10001B829D8A4B3D794C0F6FF95C000
:1012D000F7FF0001944B952B0800F5CFB9F0000102
:1012E000B951D8A470EF03F092C0D9FF93C0DAFFD0
:1012F000000EDF6E12004E6E4EAEFBD04E6C4E50A6
:10130000800A120FD8A091D0000E366E030E356EF3
:10131000000E2E6E0A0E2D6E000E286E640E276EC5
:101320004E50256E266A25BE260629EC12F025C0F1
:101330002BF026C02CF0A6EC11F0090E2B24336EF6
:10134000000E2C20346E4BEC13F0500E3324F66E4E
:10135000060E3420F76E0900F5CF3CF00900F5CFFA
:101360003DF00A00F5CF3EF0000E2E6E640E2D6E9D
:101370004E502B6E2C6A2BBE2C06A6EC11F0120ED2
:101380002B24336E000E2C20346E000E366E030EAE
:10139000356E4BEC13F0500E3324F66E060E3420EF
:1013A000F76E0900F5CF39F00900F5CF3AF00A00E1
:1013B000F5CF3BF043EC10F039C04BF03AC04CF0A5
:1013C0003BC04DF04BC039F04CC03AF04DC03BF043
:1013D000000E366E030E356E000E286E0A0E276E56
:1013E0004E50256E266A25BE260629EC12F025C031
:1013F00033F026C034F04BEC13F0500E3324F66E6D
:10140000060E3420F76E0900F5CF3CF00900F5CF49
:101410003DF00A00F5CF3EF043EC10F039C048F043
:101420003AC049F03BC04AF012004E50800A750F96
:10143000D8A04DD0000E2E6E0A0E2D6E4E502B6E83
:101440002C6A2BBE2C06A6EC11F0090E2B24336E51
:10145000000E2C20346E000E366E030E356E4BECF3
:1014600013F0500E3324F66E060E3420F76E09008A
:10147000F5CF39F00900F5CF3AF00A00F5CF3BF08F
:10148000000E366E030E356E000E286E0A0E276EA5
:101490004E50256E266A25BE260629EC12F025C080
:1014A00033F026C034F04BEC13F0500E3324F66EBC
:1014B000060E3420F76E0900F5CF3CF00900F5CF99
:1014C0003DF00A00F5CF3EF043EC10F0A7D74E50A8
:1014D000030D500EF324F66E060EF420F76E09008D
:1014E000F5CF48F00900F5CF49F00A00F5CF4AF0F2
:1014F00012004E50800A120FD8A091D0000E366E06
:10150000030E356E000E2E6E0A0E2D6E000E286E26
:10151000640E276E4E50256E266A25BE260629ECDF
:1015200012F025C02BF026C02CF0A6EC11F0090E0D
:101530002B24336E000E2C20346E4BEC13F0290E4E
:101540003324F66E060E3420F76E0900F5CF3CF01A
:101550000900F5CF3DF00A00F5CF3EF0000E2E6EEB
:10156000640E2D6E4E502B6E2C6A2BBE2C06A6ECF4
:1015700011F0120E2B24336E000E2C20346E000E50
:10158000366E030E356E4BEC13F0290E3324F66ED7
:10159000060E3420F76E0900F5CF39F00900F5CFBB
:1015A0003AF00A00F5CF3BF043EC10F039C04BF0B5
:1015B0003AC04CF03BC04DF04BC039F04CC03AF053
:1015C0004DC03BF0000E366E030E356E000E286ED9
:1015D0000A0E276E4E50256E266A25BE260629EC79
:1015E00012F025C033F026C034F04BEC13F0290E76
:1015F0003324F66E060E3420F76E0900F5CF3CF06A
:101600000900F5CF3DF00A00F5CF3EF043EC10F0B5
:1016100039C048F03AC049F03BC04AF012004E5081
:10162000800A750FD8A04DD0000E2E6E0A0E2D6EBA
:101630004E502B6E2C6A2BBE2C06A6EC11F0090E18
:101640002B24336E000E2C20346E000E366E030EEB
:10165000356E4BEC13F0290E3324F66E060E342053
:10166000F76E0900F5CF39F00900F5CF3AF00A001E
:10167000F5CF3BF0000E366E030E356E000E286E71
:101680000A0E276E4E50256E266A25BE260629ECC8
:1016900012F025C033F026C034F04BEC13F0290EC5
:1016A0003324F66E060E3420F76E0900F5CF3CF0B9
:1016B0000900F5CF3DF00A00F5CF3EF043EC10F005
:1016C000A7D74E50030D290EF324F66E060EF42014
:1016D000F76E0900F5CF48F00900F5CF49F00A0090
:1016E000F5CF4AF0120082C086F00001876B886B4C
:1016F000000181350001863701E3878100018651B1
:1017000000018B6F85C086F00001876B886B00013C
:1017100084350001863701E387810001865100018D
:101720008A6F00018B510001D8B411D000018A5199
:1017300000018B5DD8B012D000018B510008000170
:101740008A250001866F180E0001866507D083C0C8
:1017500080F084C081F085C082F0120000018A51BF
:101760000001D8B411D000018B5100018A5DD8B0BE
:1017700012D000018A51000800018B250001866FFC
:10178000180E0001866507D080C080F081C081F00E
:1017900082C082F01200060E0001896F000182AF44
:1017A00002D00001898F000185AF02D00001898D30
:1017B0000001818FFF0E00018017FF0E00018117CD
:1017C000000E000182170001848FFF0E00018317B5
:1017D000FF0E00018417000E0001851700018A51D9
:1017E00000018B5DD8B025D00001D89083378437B5
:1017F000853700018A0700018B5100018A19D8B48E
:1018000011D00001890789C086F0070E00018617F4
:10181000D8B408D0E9D70001D8908233813380331F
:1018200000018B2B00018A5100018B19D8B42BD0F9
:10183000F2D700018B5100018A5DD8B024D000019D
:10184000D89080378137823700018B0700018B5198
:1018500000018A19D8B411D00001890789C086F027
:10186000070E00018617D8B408D0E9D70001D89038
:1018700085338433833300018A2B00018A510001B0
:101880008B19D8A4F3D7000189AF12D0FF0E000145
:10189000801BFF0E0001811BFF0E0001821B010E49
:1018A00000018027000E00018123000E0001822329
:1018B000000189AD12D0FF0E0001831BFF0E000155
:1018C000841BFF0E0001851B010E00018327000E03
:1018D00000018423000E00018523000E0001896FA2
:1018E0000001805100018327000181510001842300
:1018F0000001825100018523000185AF15D0FF0E44
:101900000001831BFF0E0001841BFF0E0001851BDD
:10191000010E00018327000E00018423000E000148
:101920008523010E0001896F83C025F084C026F055
:1019300085C027F08BC028F089C029F0BDEC10F0DD
:1019400025C080F026C081F027C082F01200516EC1
:101950006D0E51649FD0000E366E030E356E000E74
:101960002E6E0A0E2D6E000E286E640E276E51C06C
:1019700025F0266A29EC12F025C02BF026C02CF0A9
:10198000A6EC11F0090E2B24336E000E2C20346EC1
:101990004BEC13F0500E3324F66E060E3420F76E27
:1019A0000900F5CF3CF00900F5CF3DF00A00F5CF76
:1019B0003EF0000E2E6E640E2D6E51C02BF02C6A80
:1019C000A6EC11F0120E2B24336E000E2C20346E78
:1019D000000E366E030E356E4BEC13F0500E3324B2
:1019E000F66E060E3420F76E0900F5CF39F00900C7
:1019F000F5CF3AF00A00F5CF3BF043EC10F039C0D8
:101A00004EF03AC04FF03BC050F0000E366E030E61
:101A1000356E000E286E0A0E276E51C025F0266A1C
:101A200029EC12F025C033F026C034F04BEC13F053
:101A3000500E3324F66E060E3420F76E0900F5CFF3
:101A40003CF00900F5CF3DF00A00F5CF3EF04EC066
:101A500039F04FC03AF050C03BF043EC10F039C0C1
:101A60004BF03AC04CF03BC04DF04BC039F04CC08D
:101A70003AF04DC03BF0000E3C6E000E3D6E3F0E46
:101A80003E6E43EC10F039C048F03AC049F03BC01C
:101A90004AF012000A0E51645DD0000E366E030E3D
:101AA000356E000E286E0A0E276E51C025F0266A8C
:101AB00029EC12F025C033F026C034F04BEC13F0C3
:101AC000500E3324F66E060E3420F76E0900F5CF63
:101AD0003CF00900F5CF3DF00A00F5CF3EF0000ED6
:101AE0002E6E0A0E2D6E51C02BF02C6AA6EC11F052
:101AF000090E2B24336E000E2C20346E000E366E31
:101B0000030E356E4BEC13F0500E3324F66E060EBA
:101B10003420F76E0900F5CF39F00900F5CF3AF01F
:101B20000A00F5CF3BF043EC10F039C04EF03AC05C
:101B30004FF03BC050F04EC039F04FC03AF050C0AB
:101B40003BF0000E3C6E000E3D6E3F0E3E6E43ECD1
:101B500010F099D75150030D500EF324F66E060E77
:101B6000F420F76E0900F5CF39F00900F5CF3AF00F
:101B70000A00F5CF3BF0000E3C6E000E3D6E3F0EAE
:101B80003E6E43EC10F039C048F03AC049F03BC01B
:101B90004AF01200D388D38AD38C030ED312D3A475
:101BA000FED7000E936E000E8A6E000E266E330E68
:101BB000256E000E286E000E276E000E2A6E010E96
:101BC000296E000E2C6E000E2B6EE8EC12F0928047
:101BD000C198C19AC150F00B0E09C16EC08EC050A1
:101BE000C70B2009C06EC050F80B0409C06EC29428
:101BF000C296C298C29AC280D08EF28EF28CC282F5
:101C0000C2B2FED7000E0001926F010E0001936F69
:101C1000970E0001946F060E0001956FC4CF96F0E9
:101C20000001976BC3CF98F00001996B68EC03F04B
:101C3000000E276E010E286E03EC13F0C450000155
:101C4000BA6FBB6B060ED8900001BA37BB37E82ECF
:101C5000FAD7C3CFBCF00001D890BC330001D890B4
:101C6000BC330001BC510001BA11566E0001BB51DA
:101C7000576E56C08AFFC350C4CFBAF00001BB6B89
:101C8000BAC0BBF00001BA6B0001BA11566E000178
:101C9000BB51576E56C02DF057C02EF070EC13F0AC
:101CA0002DC039F02EC03AF02FC03BF0280E3C6E0C
:101CB000A00E3D6E3B0E3E6E43EC10F039C053F06B
:101CC0003AC054F03BC055F0000E0001926F010E77
:101CD0000001936FBF0E0001946F060E0001956F17
:101CE00053C096F054C097F055C098F068EC03F0DC
:101CF000000E276E010E286E03EC13F080D727C06C
:101D00002BF02C6A2D6A26342B3601E32C802B50C5
:101D1000336E3350D8A409D0000E256E000E266E07
:101D2000000E276E000E286E12002AC02BF02C6ABF
:101D30002D6A29342B3601E32C802B50326E325021
:101D4000D8A409D0000E256E000E266E000E276E58
:101D5000000E286E1200268EFF0E2516FF0E261688
:101D6000000E2716298EFF0E2816FF0E2916000ECC
:101D70002A16000E2E6E000E2F6E000E306E000E14
:101D8000316E7F0E335E3250980F335E180E326E16
:101D9000D8902E362F36303631362850255C2950D3
:101DA00026582A502758D8A007D02850255E2950F9
:101DB000265A2A50275A2E80D8902536263627367E
:101DC000322EE6D733AE16D03350800A970FD8B0F4
:101DD00009D0000E256E000E266E000E276E000E36
:101DE000286E1200D890313230322F322E32333EEC
:101DF000F9D715D0170E33640FD0000E256E000EE4
:101E0000266E000E276E000E286E1200D8902E3619
:101E10002F363036313633063350D8A4F7D72EC09C
:101E200025F02FC026F030C027F031C028F0120076
:101E300051C080F00001816B826B5034000180370B
:101E400001E381810001805100018A6F00018A5104
:101E5000D8A409D0000E4F6E000E506E000E516EC9
:101E6000000E526E1200170E0001806F4FC081F0FD
:101E700050C082F051C083F0000180290001846FBE
:101E800005D00001D8908333823381330001842F41
:101E9000F8D7000181510001856F508EFF0E4F165B
:101EA000FF0E5016000E51164F500001866F505015
:101EB0000001876F51500001886F0001896B8E0E01
:101EC00000018A5F00018AAF19D000018A51800A9F
:101ED0008F0FD8B009D0000E4F6E000E506E000E5E
:101EE000516E000E526E12000001D8908933883373
:101EF0008733863300018A3FF7D71AD0170E0001C7
:101F00008A6511D0000E4F6E000E506E000E516E9D
:101F1000000E526E12000001D8908637873788373E
:101F2000893700018A0700018A510001D8A4F3D73C
:101F3000000185510001D8B409D00001891F881F14
:101F4000871F866D000E87238823892386C04FF064
:101F500087C050F088C051F089C052F01200273479
:101F60002834306E3050D8A409D0000E256E000EF3
:101F7000266E000E276E000E286E12002A342B34B7
:101F80002F6E2F50D8A409D0000E256E000E266E9D
:101F9000000E276E000E286E1200278EFF0E2516EB
:101FA000FF0E2616FF0E2716000E28162A8EFF0E8D
:101FB0002816FF0E2916FF0E2A16000E2B16000EED
:101FC0002B6E000E2C6E000E2D6E000E2E6E7F0EF0
:101FD000305E2F50A00F305E200E2F6ED8902B3623
:101FE0002C362D362E362850255C295026582A505E
:101FF00027582B502858D8A009D02850255E2950A2
:10200000265A2A50275A2B50285A2B80D8902536EA
:102010002636273628362F2EE1D730AE16D0305050
:10202000800A9F0FD8B009D0000E256E000E266ED4
:10203000000E276E000E286E1200D8902E322D3220
:102040002C322B32303EF9D715D01F0E30640FD012
:10205000000E256E000E266E000E276E000E286EF6
:102060001200D8902B362C362D362E3630063050B6
:10207000D8A4F7D72BC025F02CC026F02DC027F010
:102080002EC028F012003BC03FF0406A416A3A344B
:102090003F3601E340803F50426E4250D8A407D003
:1020A000000E396E000E3A6E000E3B6E12003EC0FE
:1020B0003FF0406A416A3D343F3601E340803F5083
:1020C000476E4750D8A407D0000E396E000E3A6E06
:1020D000000E3B6E120047507B0F42263BC047F07C
:1020E0003E50471A800E47163A8E3D8EFF0E3C1624
:1020F000FF0E3D16000E3E16000E436E000E446E9F
:10210000000E456E070E466E39A006D03C504326A1
:102110003D5044223E504522D8903B323A3239322B
:10212000D8903C363D363E36462EEED7090E466EEA
:1021300039A006D03C5043263D5044223E50452213
:10214000D8903B323A323932D89045324432433219
:10215000462EEED743C025F044C026F045C027F0F8
:1021600042C028F047C029F0BDEC10F025C039F07E
:1021700026C03AF027C03BF012002850D8B405D052
:10218000255026102710D8A40CD0000E256E000E66
:10219000266E000E276E1200282AD890273226328B
:1021A0002532000E25142A6E000E26142B6EFE0E0C
:1021B00027142C6E2A502B102C10D8B40CD0ECD72E
:1021C000282A010E2526000E2622000E2722D8904E
:1021D000273226322532000E25142A6E000E2614D0
:1021E0002B6EFF0E27142C6E2A502B102C10D8B4F7
:1021F00006D0E6D72806D89025362636273626BEBE
:1022000003D0020E2860F6D728A0269ED890283248
:10221000285027122950D8A4278E25C025F026C083
:1022200026F027C027F012000600FACF06F0FBCFF9
:1022300007F0E9CF08F0EACF09F0E1CF0AF0E2CFEA
:102240000BF0D9CF0CF0DACF0DF0F3CF0EF0F4CFC6
:102250000FF0F6CF10F0F7CF11F0F8CF12F0F5CF66
:1022600013F0F29E9EAA0BD0590E016E000E026E64
:10227000580E036E000E046E34EC13F09E9AF28E2C
:1022800013C0F5FF12C0F8FF11C0F7FF10C0F6FF32
:102290000FC0F4FF0EC0F3FF0DC0DAFF0CC0D9FF72
:1022A0000BC0E2FF0AC0E1FF09C0EAFF08C0E9FF76
:1022B00007C0FBFF06C0FAFF5A92110027AE16D0E6
:1022C00025C02BF026C02CF027C02DF02B1E2C1E75
:1022D0002D1E2B2A000E2C222D22000E2B24256EC3
:1022E000000E2C20266E800E2D20276E2AAE16D0D2
:1022F00028C02BF029C02CF02AC02DF02B1E2C1E3C
:102300002D1E2B2A000E2C222D22000E2B24286E8F
:10231000000E2C20296E800E2D202A6E000E251A0C
:10232000000E261A800E271A000E281A000E291AEF
:10233000800E2A1A2850255C295026582A502758E2
:10234000D8B002D0D8901200D8801200000E306EA3
:102350002EAE06D02D6C2E1ED8B02E2A010E306E59
:102360002CAE06D02B6C2C1ED8B02C2A010E301AA5
:10237000000E326E000E316E2D502E10D8B41CD0CF
:10238000010E2F6E04D0D8902D362E362F2A2EAE69
:10239000FAD7D890313632362D502B5C2E502C582F
:1023A000D8A005D02D502B5E2E502C5A3180D890BD
:1023B0002E322D322F2EEDD73050D8B404D0316CC0
:1023C000321ED8B0322A31C02BF032C02CF01200AD
:1023D000000E2D6E000E2E6E000E2F6E000E306E53
:1023E00029502A102B102C10D8B42AD0010E316E8F
:1023F00006D0D89029362A362B362C36312A2CAEE8
:10240000F8D7D8902D362E362F3630362950255C09
:102410002A5026582B5027582C502858D8A009D07D
:102420002950255E2A50265A2B50275A2C50285ABC
:102430002D80D8902C322B322A322932312EE1D7FE
:102440002DC025F02EC026F02FC027F030C028F078
:102450001200000E2A6E26AE06D0256C261ED8B0BD
:10246000262A010E2A6E28AE04D0276C281ED8B06A
:10247000282A27502810D8B418D0010E296E04D06D
:10248000D89027362836292A28AEFAD72750255C37
:1024900028502658D8A004D02750255E2850265A08
:1024A000D89028322732292EF1D72A50D8B404D018
:1024B000256C261ED8B0262A25C025F026C026F079
:1024C000120029502A102B102C10D8B424D0010E41
:1024D0002D6E06D0D89029362A362B362C362D2A4A
:1024E0002CAEF8D72950255C2A5026582B50275857
:1024F0002C502858D8A008D02950255E2A50265A9A
:102500002B50275A2C50285AD8902C322B322A3252
:1025100029322D2EE7D725C025F026C026F027C06A
:1025200027F028C028F012008E0E356E06D0D89005
:1025300030322F322E322D32352A000E2D14316ECC
:10254000000E2E14326E000E2F14336EFF0E301458
:10255000346E3150321033103410D8A4E8D72DC067
:1025600025F02EC026F02FC027F035C028F0000E31
:10257000296EBDEC10F025C02DF026C02EF027C02E
:102580002FF0120000018F510001901100019111F4
:10259000D8B409D0000E00018F1B000E0001901B63
:1025A000800E0001911B8CC080F08DC081F08EC028
:1025B00082F08FC083F090C084F091C085F073ECFE
:1025C0000BF080C08CF081C08DF082C08EF01200C4
:1025D000948E948C2650B06E25C0AFFFAB88AB8E26
:1025E0002BB002D0B89601D0B88627B002D0AC98F4
:1025F00001D0AC8829B002D0AC9401D0AC84AC8AB4
:102600009F8A9D8A1200000E296E0BD02950010D61
:10261000F3502724256EF4502820266E91EC13F0F9
:10262000292A2950010DF3502724D96EF45028206F
:10263000DA6EDF50D8B41200E9D701EE00F011EEE7
:1026400000F0EE6AE550E150FCE1E250FAE100EE04
:1026500053F0070EEE6AE806FDE15A905A92000E1A
:10266000F86E0001CAEF0DF0ABA403D0AECF05F0B9
:102670001200ABA203D0AB98AB88120001C0D9FF07
:1026800002C0DAFFAECFDFFF03C0D9FF04C0DAFF1C
:10269000010EDF6E120033503502F3CF37F0F4CF66
:1026A00038F033503602F350382634503502F350A8
:1026B000382637C033F038C034F0120025502610C9
:1026C0002710D8B406D0000E251A000E261A800E48
:1026D000271A25C025F026C026F027C027F01200B3
:1026E0002DC025F02EC026F0276A8E0E286E000E13
:1026F000296EBDEC10F025C02DF026C02EF027C0AD
:102700002FF01200276E000E266E3A0E276005D0BD
:102710002F0E276402D0010E266E26C025F025302C
:10272000120025C0D9FF26C0DAFFDF50AD6E01D000
:0827300000F0ACB21200FCD76E
:020000040020DA
:08000000FFFFFFFFFFFFFFFF00
:020000040030CA
:0E000000FF08191EFF8185FF0FC00FE00F40A3
:00000001FF
